{
  "contractName": "BettingFactory",
  "abi": [
    {
      "constant": true,
      "inputs": [
        {
          "name": "",
          "type": "uint256"
        }
      ],
      "name": "contracts",
      "outputs": [
        {
          "name": "",
          "type": "address"
        }
      ],
      "payable": false,
      "stateMutability": "view",
      "type": "function"
    },
    {
      "constant": true,
      "inputs": [],
      "name": "getContractCount",
      "outputs": [
        {
          "name": "contractCount",
          "type": "uint256"
        }
      ],
      "payable": false,
      "stateMutability": "view",
      "type": "function"
    },
    {
      "constant": false,
      "inputs": [
        {
          "name": "player",
          "type": "string"
        },
        {
          "name": "_statistic",
          "type": "string"
        },
        {
          "name": "amount",
          "type": "uint256"
        },
        {
          "name": "_operator",
          "type": "uint256"
        },
        {
          "name": "position",
          "type": "bool"
        }
      ],
      "name": "makeBet",
      "outputs": [
        {
          "name": "newContract",
          "type": "address"
        }
      ],
      "payable": true,
      "stateMutability": "payable",
      "type": "function"
    }
  ],
  "bytecode": "0x608060405234801561001057600080fd5b50610ad9806100206000396000f300608060405260043610610057576000357c0100000000000000000000000000000000000000000000000000000000900463ffffffff168063474da79a1461005c57806360bd4e2b146100c95780639399869d146101cb575b600080fd5b34801561006857600080fd5b50610087600480360381019080803590602001909291905050506101f6565b604051808273ffffffffffffffffffffffffffffffffffffffff1673ffffffffffffffffffffffffffffffffffffffff16815260200191505060405180910390f35b610189600480360381019080803590602001908201803590602001908080601f0160208091040260200160405190810160405280939291908181526020018383808284378201915050505050509192919290803590602001908201803590602001908080601f01602080910402602001604051908101604052809392919081815260200183838082843782019150505050505091929192908035906020019092919080359060200190929190803515159060200190929190505050610234565b604051808273ffffffffffffffffffffffffffffffffffffffff1673ffffffffffffffffffffffffffffffffffffffff16815260200191505060405180910390f35b3480156101d757600080fd5b506101e06103cd565b6040518082815260200191505060405180910390f35b60008181548110151561020557fe5b906000526020600020016000915054906101000a900473ffffffffffffffffffffffffffffffffffffffff1681565b600080600a87878787876102466103d9565b80806020018060200186815260200185815260200184151515158152602001838103835288818151815260200191508051906020019080838360005b8381101561029d578082015181840152602081019050610282565b50505050905090810190601f1680156102ca5780820380516001836020036101000a031916815260200191505b50838103825287818151815260200191508051906020019080838360005b838110156103035780820151818401526020810190506102e8565b50505050905090810190601f1680156103305780820380516001836020036101000a031916815260200191505b509750505050505050506040518091039082f080158015610355573d6000803e3d6000fd5b509050905060008190806001815401808255809150509060018203906000526020600020016000909192909190916101000a81548173ffffffffffffffffffffffffffffffffffffffff021916908373ffffffffffffffffffffffffffffffffffffffff160217905550508091505095945050505050565b60008080549050905090565b6040516106c4806103ea83390190560060806040526040516106c43803806106c483398101806040528101908080518201929190602001805182019291906020018051906020019092919080519060200190929190805190602001909291905050508460049080519060200190610067929190610167565b50836005908051906020019061007e929190610167565b508260068190555081600481111561009257fe5b600760006101000a81548160ff021916908360048111156100af57fe5b021790555080600060146101000a81548160ff021916908315150217905550326000806101000a81548173ffffffffffffffffffffffffffffffffffffffff021916908373ffffffffffffffffffffffffffffffffffffffff1602179055506000600760016101000a81548160ff0219169083600181111561012d57fe5b02179055506003600760026101000a81548160ff0219169083600481111561015157fe5b021790555034600981905550505050505061020c565b828054600181600116156101000203166002900490600052602060002090601f016020900481019282601f106101a857805160ff19168380011785556101d6565b828001600101855582156101d6579182015b828111156101d55782518255916020019190600101906101ba565b5b5090506101e391906101e7565b5090565b61020991905b808211156102055760008160009055506001016101ed565b5090565b90565b6104a98061021b6000396000f300608060405260043610610083576000357c0100000000000000000000000000000000000000000000000000000000900463ffffffff168063047b09801461008857806312a7e36c146100e057806338a3fde71461010f578063534db0e2146101315780638da5cb5b14610188578063a61bb668146101df578063fb5255831461020e575b600080fd5b6100c6600480360381019080803573ffffffffffffffffffffffffffffffffffffffff16906020019092919080359060200190929190505050610266565b604051808215151515815260200191505060405180910390f35b3480156100ec57600080fd5b506100f56102d9565b604051808215151515815260200191505060405180910390f35b61012f6004803603810190808035151590602001909291905050506102ec565b005b34801561013d57600080fd5b506101466103ac565b604051808273ffffffffffffffffffffffffffffffffffffffff1673ffffffffffffffffffffffffffffffffffffffff16815260200191505060405180910390f35b34801561019457600080fd5b5061019d6103d2565b604051808273ffffffffffffffffffffffffffffffffffffffff1673ffffffffffffffffffffffffffffffffffffffff16815260200191505060405180910390f35b3480156101eb57600080fd5b506101f46103f7565b604051808215151515815260200191505060405180910390f35b61024c600480360381019080803573ffffffffffffffffffffffffffffffffffffffff1690602001909291908035906020019092919050505061040a565b604051808215151515815260200191505060405180910390f35b60008273ffffffffffffffffffffffffffffffffffffffff166108fc839081150290604051600060405180830381858888f193505050501580156102ae573d6000803e3d6000fd5b506001600760026101000a81548160ff021916908360048111156102ce57fe5b021790555092915050565b600160149054906101000a900460ff1681565b600060149054906101000a900460ff1615158115151415151561030e57600080fd5b600954341015151561031f57600080fd5b34600954016008819055506001600760016101000a81548160ff0219169083600181111561034957fe5b021790555033600160006101000a81548173ffffffffffffffffffffffffffffffffffffffff021916908373ffffffffffffffffffffffffffffffffffffffff16021790555080600160146101000a81548160ff02191690831515021790555050565b600160009054906101000a900473ffffffffffffffffffffffffffffffffffffffff1681565b6000809054906101000a900473ffffffffffffffffffffffffffffffffffffffff1681565b600060149054906101000a900460ff1681565b60008273ffffffffffffffffffffffffffffffffffffffff166108fc839081150290604051600060405180830381858888f19350505050158015610452573d6000803e3d6000fd5b506000600760026101000a81548160ff0219169083600481111561047257fe5b0217905550929150505600a165627a7a723058204e4684593dfd2bb1bf8f256ce0476e9bae6b93b6197b7c792882c1cc265655040029a165627a7a723058207c47c0a40da4fdb848b0e542dbbc78715cee0c558e9ee671cd1ba24fc09a51980029",
  "source": "pragma solidity ^0.4.24;\n\ncontract NewBet {\n\n    enum BetStatus { OPEN, CLOSED }\n    enum BetResult { OWNERWIN, CHALLENGERWIN, DRAW, PENDING, UNKNOWN }\n    enum Operator { LESSTHAN, LESSTHANOREQUALTO, EQUALTO, MORETHANOREQUALTO, MORETHAN }\n  \n    address public owner;\n    bool public ownerPosition;\n    address public challenger;\n    bool public challengerPosition;\n    uint betId;\n    string gameId;\n    string Player;\n    string statistic;\n    uint Amount;\n    Operator operator;\n    BetStatus betStatus;\n    BetResult betResult;\n    uint Pot;\n    uint Wager;\n    \n    \n    constructor (string player, string _statistic, uint amount, uint _operator, bool position)\n        public \n        payable {\n        \n            Player = player;\n            statistic = _statistic;\n            Amount = amount;\n            operator = Operator(_operator);\n            ownerPosition = position;\n            owner = tx.origin;\n            \n            betStatus = BetStatus.OPEN;\n            \n            betResult = BetResult.PENDING;\n            \n            Wager = msg.value;\n            \n            }\n    \n    function takeBet(bool position)\n        public\n        payable {\n            \n            require(position != ownerPosition);\n            require(msg.value >= Wager);\n            \n            Pot = Wager + msg.value;\n            betStatus = BetStatus.CLOSED;\n            challenger = msg.sender;\n            challengerPosition = position;\n            \n        }\n        \n    function payOutChallenger(address challenger, uint Pot) public payable returns(bool) {\n        \n       // require (msg.sender == oracleAddress);\n        challenger.transfer(Pot);\n        betResult = BetResult.CHALLENGERWIN;\n        }\n        \n    function payOutOwner(address owner, uint Pot) public payable returns(bool) {\n        \n       // require (msg.sender == oracleAddress);\n        owner.transfer(Pot);\n        betResult = BetResult.OWNERWIN;\n        }\n  \n}\n\n\n/////////////////////////////\n\ncontract BettingFactory {\n\n  // index of created contracts\n\n  address[] public contracts;\n\n  // useful to know the row count in contracts index\n\n  function getContractCount() \n    public \n    constant\n    returns(uint contractCount) {\n    return contracts.length;\n    }\n\n  \n  // deploy a new betting contract\n\n  function makeBet(string player, string _statistic, uint amount, uint _operator, bool position)\n    public \n    payable \n    returns(address newContract) {\n\n    NewBet b = (new NewBet).value(10)(player, _statistic, amount, _operator, position);\n    contracts.push(b);\n    return b;\n    \n    }\n}",
  "sourcePath": "/Users/jonnyhowle/Documents/CODE-Projects/ConsenSysAcademy/Final-Project/vote/contracts/Election.sol",
  "compiler": {
    "name": "solc",
    "version": "0.4.24+commit.e67f0147.Emscripten.clang"
  },
  "schemaVersion": "2.0.1",
  "updatedAt": "2018-08-28T09:17:21.672Z"
}